:0400000040EF00F0DD
:100008000D820E0133AB0BEF00F00DEF00F023EF84
:1000180000F080A612EF00F016EF00F0066A062A3C
:1000280017EF00F0066A0646064606468050061890
:10003800F70B0618806ED384D38A0E01339B35A143
:1000480028EF00F02AEF00F03EEF00F080A62FEF37
:1000580000F033EF00F0066A062A34EF00F0066A73
:1000680006460646064680500618F70B0618806EA8
:100078000E0135910D921100B9EF01F0F5EC01F088
:1000880022EC02F0E2EC01F0CFEC01F008EC02F017
:100098008096889627EC02F00C6E0C5077EC01F0F5
:1000A800010E0C645AEF00F05CEF00F06BEF00F00B
:1000B800050E0C6062EF00F064EF00F06BEF00F0EB
:1000C800000E77EC01F00E01D09F6DEF00F00E01ED
:1000D800D09F180E0C18D8A474EF00F076EF00F03B
:1000E8004EEF00F0000ECD6E014A022A052A080ED6
:1000F8000518D8A482EF00F084EF00F086EF00F036
:10010800010E056E6E0E015C010E0258D8A08FEF2D
:1001180000F091EF00F0C9EF00F00350D8A497EF7A
:1001280000F099EF00F0ADEF00F0000E026E010E46
:10013800016E042A04C009F0030E0916D8A4A7EF1B
:1001480000F0A9EF00F0C9EF00F0010E036EC9EF4F
:1001580000F00304D8A4B3EF00F0B5EF00F0C9EF46
:1001680000F06F0E015C010E0258D8A0BEEF00F03F
:10017800C0EF00F0C9EF00F0000E026E010E016E34
:10018800042A000E036EC9EF00F0025009E1540E74
:10019800015CD8A0D2EF00F0D4EF00F022EF01F01C
:1001A8000B50D8A4DAEF00F0DCEF00F022EF01F0FA
:1001B8000304D8A4E2EF00F0E4EF00F006EF01F04A
:1001C800025009E1550E015CD8A0EDEF00F0EFEF09
:1001D80000F006EF01F0070E0518D8A4F6EF00F0BE
:1001E800F8EF00F022EF01F0020E0C18D8A4FFEF90
:1001F80000F001EF01F022EF01F0CD2A010E0B6EA5
:1002080022EF01F00350D8A40CEF01F00EEF01F03B
:1002180022EF01F0070E0518D8A415EF01F017EF2B
:1002280001F022EF01F0020E0C18D8A41EEF01F025
:1002380020EF01F022EF01F001EF01F02A0E015C3E
:10024800010E0258D8A02BEF01F02DEF01F04EEF70
:1002580000F00A50D8A433EF01F035EF01F04EEF6B
:1002680000F00304D8A43BEF01F03DEF01F05FEF8D
:1002780001F02B0E015C010E0258D8A046EF01F0E8
:1002880048EF01F05FEF01F0070E0518D8A44FEF13
:1002980001F051EF01F073EF01F0020E0C18D8A431
:1002A80058EF01F05AEF01F073EF01F0CD06010E9F
:1002B8000A6E4EEF00F0070E0518D8A466EF01F09D
:1002C80068EF01F073EF01F0020E0C18D8A46FEF7D
:1002D80001F071EF01F073EF01F05AEF01F04EEF0A
:1002E80000F040EF00F0086E08C007F0073A0F0E64
:1002F8000716010E0716073A79500718EF0B07186B
:10030800796E08C007F0D8900732D8900732D89095
:100318000732010E0716073A074679500718DF0B10
:100328000718796E08C007F0D8900732D8900732BE
:10033800010E07167E500718FE0B07187E6E08C0C0
:1003480007F0D8900732010E07167A500718FE0BEF
:1003580007187A6E08C007F0010E071607467A508C
:100368000718FD0B07187A6E1200520EF66E040E6F
:10037800F76E000EF86E0900F5CF0AF00900F5CF08
:100388000BF0056A046A036A026A016A0D900D920D
:10039800000142EF00F0D6501F0B4009D66ED688F8
:1003A800D650F00B0809D66ED5880E01298B1F8B05
:1003B800000ED46E000ED36ED58E120087908792F1
:1003C8008194869C8198819A8690829082927F906F
:1003D8007A907E90799A79987E9C79947F927A9295
:1003E8001200868E0E01D251F80B0309D26FD35139
:1003F800F80B0509D36FD083D089D183D18118EC4C
:1004080002F00E01D08F1200D250F00B0809D26E04
:10041800CF0ECF160E012E812481000ECE6E000E57
:10042800CD6ECF80D08E1200F30E0E01C617C69186
:10043800C751E00B1C09C76FC68F12000E012B8134
:0C044800F28CF28E1200CD501200010167
:020000040020DA
:10000000FF0FFF0FFF0FFF0FFF0FFF0FFF0FFF0F80
:020000040030CA
:0C000000AAFFFFFF9FFFFFFFFFFFFFFFB5
:00000001FF
